:020000040800F2
:1000000060080020A9010008BB2D00087525000824
:10001000B92D0008731500086D33000800000000BA
:100020000000000000000000000000009530000803
:1000300019160008000000006F3000089730000813
:10004000C3010008C3010008C3010008C301000880
:10005000C3010008C3010008C3010008C301000870
:100060001B160008C3010008C3010008C3010008F3
:10007000C3010008C3010008C3010008C301000850
:10008000C3010008C3010008C3010008C301000840
:10009000C3010008C3010008C301000821160008BD
:1000A000C3010008C3010008C3010008C301000820
:1000B000C3010008C3010008C3010008C301000810
:1000C000C3010008C3010008C3010008C301000800
:1000D000C3010008C3010008C3010008C3010008F0
:1000E000C3010008C3010008C301000800F002F8C2
:1000F00000F04AF80AA090E8000C82448344AAF178
:100100000107DA4501D100F03FF8AFF2090EBAE875
:100110000F0013F0010F18BFFB1A43F0010318473B
:10012000E47F000004800000103A24BF78C878C142
:10013000FAD8520724BF30C830C144BF04680C60ED
:10014000704700000023002400250026103A28BF35
:1001500078C1FBD8520728BF30C148BF0B60704739
:10016000662906F04085642900F0768000207047FB
:100170001FB500F0BDFC04000020002105F0F6FCD6
:10018000E0601FBD10B510BD00F0B6FD1146FFF7D1
:10019000EFFF04F04DFC00F0D4FD03B4FFF7F2FFD5
:1001A00003BC00F017FE00000948804709480047DB
:1001B000FEE7FEE7FEE7FEE7FEE7FEE7FEE7FEE717
:1001C000FEE7FEE704480549054A064B7047000074
:1001D000F9300008ED0000086002002060080020EF
:1001E000600400206004002010B54C1084EA530421
:1001F00004D54042C1F1000138BF491E1B4204D55D
:100200005242C3F1000338BF5B1E00F046F914F000
:10021000804F04D04042C1F1000138BF491E14F0A4
:10022000004F04D05242C3F1000338BF5B1E10BD23
:100230000FB41CB5074B06AA7B446946009005988D
:1002400000F01BFC0020694600F02AFC1CBC5DF895
:1002500014FB0000650800002DE9F041064600246B
:1002600010687529314616A510D0AFF3008000281C
:1002700002DA404213A507E031688A0701D512A5CA
:1002800002E0490704D511A5012401E0AFF3008085
:1002900000210A2206F1240709E0B0FBF2FCB0FBC2
:1002A000F2F302FB1C00303078541846491C002839
:1002B000F3D123462A463046BDE8F04100F06FB93D
:1002C000000000002D0000002B00000020000000B6
:1002D0002DE9F0474FF0000A89460446C0F820A0F7
:1002E0002046E1688847002876D0252806D0D4E942
:1002F00001219047206A401C2062F1E7E168204616
:1003000000258847C4F81CA006460027C4F818A09A
:100310002A2E09D0304603F021F938B304EB8708C0
:10032000303EC8F8186019E059F8041B204604EB69
:1003300087029161E1688847012F064618D1E0697C
:10034000002820DA25F020051DE0D8F8180000EB81
:10035000800006EB40003038C8F818002046E168FD
:100360008847064603F0FAF80028EED1012F0AD09C
:100370002E2E08D12046E16888477F1C0646022FB2
:1003800045F02005C4DBA069002803DA404245F0AF
:100390000105A061E80701D025F01005B6B1A6F16E
:1003A0004100192802D8203645F400654A463146F6
:1003B000204625604D46FFF7D3FE58B1012806D0F0
:1003C000ED1D25F0070000F1080989E704E005F1BB
:1003D000040985E730468AE7206ABDE8F08740EAED
:1003E000010310B59B070FD1042A0DD310C808C90B
:1003F000121F9C42F8D020BA19BA884201D90120B4
:1004000010BD4FF0FF3010BD1AB1D30703D0521CFE
:1004100007E0002010BD10F8013B11F8014B1B1B39
:1004200007D110F8013B11F8014B1B1B01D1921EA3
:10043000F1D1184610BD02F0FF0343EA032242EA5D
:10044000024200F034BB4FF0000200B51346944660
:100450009646203922BFA0E80C50A0E80C50B1F11C
:100460002001BFF4F7AF090728BFA0E80C5048BF30
:100470000CC05DF804EB890028BF40F8042B08BFCE
:10048000704748BF20F8022B11F0804F18BF00F8CA
:10049000012B704770477047704753EA020C00F019
:1004A00069802DE9F04B4FF00006002B1FBFB3FA17
:1004B00083F503FA05F424FA05F65E4012BF1643ED
:1004C000B2FA82F502FA05F4C5F120051EBF22FA40
:1004D00005FC44EA0C04203556EA044C4FEA144467
:1004E00018BF641C4FF000084FF00009904271EBF8
:1004F000030C39D3002919BFB1FA81F701FA07F6C5
:10050000B0FA80F700FA07F6C7F120071EBF20FAFD
:1005100007FC46EA0C062037B6FBF4FCA7EB050700
:10052000103F07F01F0BCBF120060CFA0BFB2CFA47
:1005300006F644BFB3460026202FA4BF5E464FF008
:10054000000B5BEA060C08BF4FF0010B19EB0B091F
:10055000ABFB027C48EB0608C01B06FB02CC0BFB86
:1005600003CC71EB0C01C1E70B46024641464846FD
:10057000BDE8F08B13B54FF000004FF00001AFF372
:100580000080BDE81C40704710B500F0B5FA006867
:1005900010BD10B5044600F0AFFA046010BD2DE99F
:1005A000F0470D4699469246044600F1240801683A
:1005B000880604D5E06921F01001216000E00120E7
:1005C000A84201DD471B00E00027A1697A1902EB70
:1005D0000900081AA0612078C00602D42046AFF3B3
:1005E0000080002608E0D4E901211AF806009047AF
:1005F000206A401C761C20624E45F4DB2078C00641
:100600000AD52046AFF3008006E0D4E9012130206E
:100610009047206A401C2062381EA7F10107F4DCD5
:1006200007E0D4E9012118F805009047206A401C32
:100630002062281EA5F10105F3DC2046AFF30080FF
:100640002078000602D50220BDE8F0870120FBE7F4
:1006500070472DE9FF4F0C461E464FF0FF378BB019
:10066000D2E90001DDF860800A908A46C1F30A559C
:1006700005B93D46002108464FF00000BAF1000FD1
:1006800000F4400005DA00EB80004FF4400101EA7D
:1006900050004FEA9059B9F1010F00DDB9460A98B0
:1006A00050EA4A000ED044F61050A5F2FF354543FB
:1006B0002F14B8F1000F1ED07542291E1EDDC9F19E
:1006C00000021CE0B8F1010F4FF0000001D0302112
:1006D00003E0F24305E02154401CB042FBDB30460E
:1006E0000022002121540B99C1F80880C1E90020A3
:1006F0000FB0BDE8F08FBD1B6D1CDEE74A4600DA87
:10070000694206A800F082FA06AB93E8070003AB43
:1007100083E8070050460A9900F063FB8DE8070064
:10072000A0F500501F3800900398002D0ADD42F21A
:100730001F014A460844002303A90390684600F0BD
:10074000CCFD09E0A0F500504A461F38002303A95C
:100750000390684600F0D6FD8DE807000004000C09
:1007600003D04FF0FF30410800E01046B8F1000F11
:1007700003D00022009215461EE0751E05D400F03D
:10078000BFF9303262556D1EF9D5B34601220843D8
:1007900002D000227F1C04E02078302801D1002202
:1007A0007F1E002A099784D01DE0112D07DA00F082
:1007B000A7F9303262556D1C50EA0102F5D10843A9
:1007C00002D00098C8B10EE00021681E05E0235C4D
:1007D000625C63542254401E491C8142F7DBAB46E5
:1007E000A81B401E0990002004F80B000B98099AE2
:1007F000C0F80880C0E9002B7AE711264FF0000806
:1008000057E72DE9F04F88460446D21D22F0070134
:1008100091B0D1E90001CDE90A0102F013FE0246D0
:100820000B98C00F01D02D2007E02068810701D56B
:100830002B2002E0202101EAC000032A099001D008
:10084000072A05DB03464146204600F09FF90BE1ED
:100850002078800601D5E06900E00620B8F1650F38
:10086000814606D0B8F1660F18D0B8F1670F70D185
:1008700031E00020B9F1110F009001DB112301E0FC
:1008800009F101030AAA01A90CA8FFF7E2FEDDE9BC
:100890000C70002609F10105834647E001204B4614
:1008A00000904FF000470AAA01A90CA8FFF7D1FE5B
:1008B000DDE90DB00C995D46002610B909F1010083
:1008C0000D18B9EB050003D4C0F1FF3609F101059D
:1008D000A5EB09002BE0B9F1010F01DA4FF0010996
:1008E0000020B9F1110F0090484601DD112300E00E
:1008F00003460AAA01A90CA8FFF7ABFEDDE90C70BC
:100900004D4600268346207800070AD4AB4500DA1E
:100910005D4601A8012D04DD411911F8011C3029A3
:1009200007D04F4502DA17F1040F04DA012082469E
:100930000FE06D1EEEE7002F02DCED1B3E4403E0EE
:10094000781CA84200DD7D1CB81B00F1010A4FF0A5
:1009500000472078000703D4AA4501DB4FF0FF3A97
:100960000021B7F1004F0DF143088DF8431024D05A
:1009700002202B23002F01DA7F422D230A21021EA1
:10098000A0F1010000DC5FB197FBF1FC97FBF1F2F5
:1009900001FB1C7C17460CF1300C08F801CDEEE78A
:1009A000A8F1010003702188090501D5452100E067
:1009B0006521A0F1010800F8011C09980FA9A1EB1D
:1009C0000807FF1D00B10120411901EBEA70A16980
:1009D0003844081A401EA0612078C00602D4204680
:1009E000AFF30080099828B1D4E901219047206A2B
:1009F000401C20622078C00622D52046AFF300803C
:100A00001EE0002E04DBB34502DD01A8805D00E09E
:100A10003020D4E901219047206A401C2062761CD6
:100A2000AAF101005FEA000A0AD100F061F8C0688B
:100A30000168405CD4E901219047206A401C206293
:100A4000281EA5F10105DCDC07E0D4E9012118F836
:100A5000010B9047206A401C2062381EA7F1010755
:100A6000F3DC2046AFF30080032011B041E6000024
:100A700001694A1C02610878704700B58FB0CDE962
:100A800001310021059105497944CDE90310114652
:100A90006846FFF71DFC0FB000BD0000E5FFFFFF3B
:100AA0000A6802F8010B0A6070474FF0000204293F
:100AB000C0F0128010F0030C3FF4C7ACCCF1040C72
:100AC000BCF1020F18BF00F8012BA8BF20F8022BC1
:100AD000A1EB0C01FFF7B9BC5FEAC17C24BF00F8B1
:100AE000012B00F8012B48BF00F8012B70470000D4
:100AF000004870471C02002000487047FC0100209D
:100B000030B5B0F10A024FEA900E71F100034EEADF
:100B1000817EB0EB0E0061EB91014FEA101E4EEAB0
:100B2000017E10EB0E0041EB11114FEA102E4EEA40
:100B3000016E10EB0E0041EB11214FEA104E4EEA10
:100B4000014E10EB0E0041EB1141401841F1000144
:100B50004FEAD00040EA41704FEAD10110EB800526
:100B60004FEA810444EA907444EB01046D1944EBAC
:100B70000404521BA3414FF0000348BF0A3200D5C2
:100B800030BD401C41F1000130BD00002DE9F041B5
:100B90001F46044603260168072A01F4006004DBAF
:100BA00008B116A505E016A503E008B115A500E0FB
:100BB00015A521F010002060A069C01EA0610FB132
:100BC000401EA0612046AFF300804FB1D4E901215F
:100BD00038469047206A401C2062C01C206206E014
:100BE000206AFAE7D4E9012115F8010B9047761E37
:100BF000F8D22046AFF30080BDE8F0814E414E00B0
:100C00006E616E00494E4600696E66002DE9F04740
:100C1000814616468AB0354878440DC88DE80D00E7
:100C200032487844801C03AC0DC884E80D0041F6BE
:100C30009B300844372190FBF1F290FBF1F5A5F1D0
:100C4000800501FB12041B3C02D56442012000E038
:100C50000020DFF898A080460027FA44AAF1BE0AD7
:100C60000EE0E0070AD03246684607EB4701012351
:100C70000AEB810100F046FB8DE8070064107F1C41
:100C8000002CEED1194F7F44AE3F19E0E80715D094
:100C900007EB04100DF1180A90E80E008AE80E0028
:100CA000C068F04201D1981908903246012306A984
:100CB00003A800F027FB03AB83E807006D10641C5A
:100CC000002DE3D14FF0010332466946B8F1000F21
:100CD00003A802D000F001FB01E000F013FBC9E91A
:100CE0000001C9F808200AB0BDE8F087D074000000
:100CF00000487047FC0100207546FFF7F9FFAE463B
:100D000005006946534620F00700854618B020B517
:100D1000FFF758FABDE820404FF000064FF00007FB
:100D20004FF000084FF0000B21F00701AC46ACE893
:100D3000C009ACE8C009ACE8C009ACE8C0098D4600
:100D4000704710B50446AFF300802046BDE8104060
:100D5000FFF723BA4FF0013C50F8042B51F8043B45
:100D60009A4221D1A2EB0C03934313EACC1317D17F
:100D700050F8042B51F8043B9A4215D1A2EB0C0316
:100D8000934313EACC130BD150F8042B51F8043BD6
:100D90009A4209D1A2EB0C03934313EACC13DBD0A4
:100DA0004FF00000704700BFD01A01BAB1FA81F1CC
:100DB00001F0180122FA01F0CB40C1F12001DBB2B1
:100DC000C0B2C01A2CFA01F3D11A914311EAC3112F
:100DD000E6D1704701491820ABBEFEE726000200AD
:100DE00070475FEA400C08BF91F0000F4FEA8C2378
:100DF0004FEAC12243EA51514FEA1C5018BF00F597
:100E0000F0404FEA300018BF41F000415FEA6C5CEF
:100E100000F02980BCF1FF3F08BF40F080407047E0
:100E2000130C06BF12044FF0100C4FF0000C130E01
:100E300004BF12020CF1080C130F04BF12010CF1D5
:100E4000040C930F04BF92000CF1020CD30F04BFEB
:100E500052000CF1010C11464FF00002A0F11F00EE
:100E6000A0EB0C00704711F0004F08BF704731F045
:100E700000413FF4D5AF0B0C06BF09044FF0100C36
:100E80004FF0000C0B0E04BF09020CF1080C0B0F05
:100E900004BF09010CF1040C8B0F04BF89000CF195
:100EA000020CCB0F04BF49000CF1010CCCF1200364
:100EB000A0EB0C0022FA03F302FA0CF241EA030160
:100EC00000F10100704720F07F4C80EA030023F01E
:100ED0007F47ACEB070303F57C5300F0004003F1C0
:100EE000FF032DE980494FEA154B09B44FEA14433B
:100EF00025EA0B4E24EA03480FF2042606EB1327DB
:100F000049083E785FEA320203FB0667C7F500072F
:100F100007FB06F64FEA54374FEAD64606F10206BB
:100F200007FB066CCCF1005C4FEA1C472CEA074C2F
:100F300007FB06F40CFB06F504EB15464FEA961684
:100F400034BF00204FF000404FEAD13706FB07FCCA
:100F50004FEA1C4C0CFB0BF7D21B03FB0CF761EBAD
:100F600007010CFB0EF7B0EB074072EB17420CFBCE
:100F700008F734BFA2EB0742B2EB074261EB17411F
:100F80004FEA0C444FEA910706FB07FC4FEA1C4C62
:100F90000CFB0BF7B0EBC74072EB573203FB0CF7BF
:100FA00034BFA2EBC742B2EBC74261EB57310CFB37
:100FB0000EF7B0EBC70072EB57720CFB08F734BFAB
:100FC000A2EBC702B2EBC70261EB5771039F4FEA76
:100FD000816141EA921104EBCC044FEAD1374FEA28
:100FE000826206FB07FC42EA90124FEA80604FEAF9
:100FF0001C4C0CFB0BF7D21B03FB0CF761EB07013E
:101000000CFB0EF7B0EB074072EB17420CFB08F736
:1010100034BFA2EB0742B2EB074261EB17414FEA44
:101020008C554FEA910704EB9C2406FB07FC4FEA22
:101030001C4C0CFB0BF7B0EBC74072EB573203FBB9
:101040000CF734BFA2EBC742B2EBC74261EB57319A
:101050000CFB0EF7B0EBC70072EB57720CFB08F7F6
:1010600034BFA2EBC702B2EBC70261EB577115EBBD
:101070004C254FEA816141EA92114FEA82624FEAC0
:10108000D13742EA901206FB07FC44F100044FEA14
:1010900080604FEA1C4C0CFB0BF7D21B03FB0CF7D8
:1010A00061EB07010CFB0EF7B0EB074072EB174248
:1010B0000CFB08F734BFA2EB0742B2EB074261EB2F
:1010C000174115EB1C154FEA813141EA92414FEA75
:1010D000823242EA90424FEA80304FEA0C7644F185
:1010E000000448EA03434EEA0B484FF0000EB2EB0F
:1010F000080C71EB030724BF624639464EEB0E0E17
:101100004FF0000B0018524149414BEB0B0BB2EB77
:10111000080C71EB03077BF1000B24BF62463946D4
:101120004EEB0E0E4FF0000B0018524149414BEBB5
:101130000B0BB2EB080C71EB03077BF1000B24BF28
:10114000624639464EEB0E0E51EA020718BF46F0D2
:10115000010616EB0E7655F1000254F1000103D59D
:10116000BDE88901BDE80088BDE88901BDE8004807
:10117000B619524141EB0101A3F101037047808090
:101180007F7E7D7C7B7A79787776767574737271E1
:1011900071706F6E6E6D6C6C6B6A6A696868676699
:1011A00066656464636362616160605F5F5E5E5D2B
:1011B0005D5C5C5B5B5A5A5959585857575656559F
:1011C00055555454535352525251515050504F4F01
:1011D0004F4E4E4D4D4D4C4C4C4B4B4B4A4A4A4951
:1011E0004949484848474747474646464545454494
:1011F0004444444343434342424242414141002B21
:101200009C4630D477002BD01CB54FEA370703B487
:101210004FF010004FF01001BAF1000F06D0BCF1F2
:10122000000FDCBF40F0080040F008014FF0000064
:101230000FBCBDE810400BF1010BBBF1010F08BF63
:101240005FEA170722BF12F1010211F101014FF00D
:10125000004143F1000300F0004043EA0000704702
:10126000F9D35708D0E746EA064613F1400F4FEA94
:1012700016461FDD13F1200FDFBF16430A4600217B
:1012800020335B42BED0C3F1200746EA064602FA8D
:1012900007F74FEA164646EA0706C3F1200722FA87
:1012A00003F201FA07F721FA03F14FF0000342EAD3
:1012B0000702A7E746EA020646EA06464FEA16464E
:1012C00046EA0106BCBF46EA0646360C4FF000036C
:1012D0004FF000024FF0000194E72DE9804C9A4650
:1012E000934670B491E8380007C831EA400C48BF13
:1012F00034EA430C03D5FFF7E6FDFFF780FFF0BCAF
:10130000BDE8008C2DE9804C9A46934670B491E874
:10131000380007C810F0804F08BF13F0804F03D18A
:1013200000F005F8FFF76BFFF0BCBDE8008C20F083
:101330007F4780EA030023F07F4C07EB0C03A3F503
:101340007C5300F00040A3F1FE0392F0000F00F088
:10135000B38095F0000F00F077802DE901494FEA46
:1013600011404FEA144621EA004800FB06FC24EA3B
:10137000064708FB06F607FB08F800FB07F718EB23
:1013800006484CEB164C4FEA124B18EB07484FEA55
:1013900015464CEB174022EA0B4E0BFB06FC25EAE8
:1013A00006470EFB06F607FB0EFE0BFB07F71EEBD0
:1013B000064E4CEB164C4FF000061EEB074E4CEB66
:1013C000174B18EB0B0840F1000018EB0E0B58EB15
:1013D000000840F100008F1A4FF000013CBFC943E4
:1013E000661B14BFB5EB040C00213CBFC943F61BC0
:1013F0004FEA17444EEA8E0E27EA04454FEA1C478F
:1014000004FB07622CEA074C05FB07F70CFB05F60B
:1014100004FB0CFC16EB074642EB174216EB0C469E
:1014200042EB1C421BEB060658EB0202414146EA26
:101430009E0601D5BDE80189B619524141EB010173
:10144000A3F10103BDE801894FEA14454FEA1147B2
:1014500024EA054621EA074C05FB07F406FB07F7DB
:101460000CFB06F105FB0CFC11EB074144EB1744A8
:101470004FEA124711EB0C4144EB1C4422EA074CA3
:1014800005FB07F206FB07F70CFB06F605FB0CFC59
:1014900016EB074642EB174216EB0C4642EB1C4597
:1014A0006A1854F1000148BF7047B619524141EB28
:1014B0000101A3F10103704795F0000F37D04FEA07
:1014C00011424FEA144721EA024624EA074C02FB84
:1014D00007F106FB07F70CFB06F402FB0CFC14EB10
:1014E000074441EB17414FEA154714EB0C4441EB1D
:1014F0001C4125EA074C02FB07F506FB07F70CFB2E
:1015000006F602FB0CFC16EB074645EB174516EBFF
:101510000C4645EB1C42121951F1000148BF7047BF
:10152000B619524141EB0101A3F1010370474FEAA3
:1015300014454FEA114724EA054621EA074C05FB0A
:1015400007F106FB07F70CFB06F24FF0000605FB60
:101550000CFC12EB074241EB174112EB0C4251EB32
:101560001C4148BF7047921841EB0101A3F10103F0
:101570007047FEE770B5254801F086FD244CA06356
:10158000244801F081FD404204F14802111FE0634C
:10159000081F03F07BFBA21D911E881E01F06FF94E
:1015A00004F10C02911E881E01F050F9D4E90E12CC
:1015B000A06D01F0DDFE06462065B4F9020005F0DD
:1015C000A5F90546304605F0A1F9E16905F038F8BE
:1015D0002A46616C01F01CFFE064B4F9060005F0D6
:1015E00095F9E16D01F0ACFE6065E16C0A1A084402
:1015F000C4E9182004F16401081F01F0D3F8D4E90C
:101600001801BDE8704001F0E3B8000014010020AB
:1016100050000020A40100207047042000F060B8B2
:10162000202000F05DB872B6FEE7000010B5084C4F
:1016300001220821204600F054F9102001F018FD85
:1016400020460022BDE81040082100F04AB9000001
:101650000008014070B5044600F048F90546601CDA
:1016600002D004480078044400F040F9401BA04236
:10167000FAD370BD0000002010B5042805D0202842
:101680001BD1BDE81040FFF775BF04210F4800F0E3
:1016900023F90F4C012811D0204600F0EDFC206802
:1016A000406A0C4C80B2208004F0B0FC0A4A0B4B1C
:1016B00004F0C0FC04F070FA606010BD21680020E6
:1016C0004862BDE81040024800F0AEBC000801408E
:1016D0005C010020480000209CC420B07268913F4B
:1016E000044910B50A68024202D00860FFF7C4FF3F
:1016F00010BD0000140401402DE9F84FDFF8B89147
:101700000024A9F1040B23460F2709F1040AABF1C9
:10171000040EC9E00125A5402A40AA427DD1674EAA
:10172000D1F804C0ACEB0608B44532D014DCBCF1EF
:10173000030F3AD009DCBCF1000F2AD0BCF1010F35
:101740001CD0BCF1020F31D11DE0BCF1110F17D03C
:10175000BCF1120F2AD119E0B8F5881F19D006DCA8
:10176000B8F5803F15D0B8F5801F1FD111E0B8F54E
:10177000001F0ED0B8F5041F18D10AE0CB6815E0A1
:10178000CB681B1D12E0CB6808330FE0CB680C332D
:101790000CE08B682BB1012B4FF0080303D045619F
:1017A00004E0042302E0056100E00023FF2A01D8E1
:1017B000064601E000F104064FEA840501D9A5F1CF
:1017C0002005D6F8008007FA05FC28EA0C0803FA81
:1017D00005F548EA0508C6F800804D68ED0062D5B9
:1017E000374DAE6946F00106AE61AD6924F00306DF
:1017F00005F001050095334D06EB050CDCF80850AB
:10180000A607360F07FA06F825EA0805DFF8B880BC
:10181000404503D14FF0000817E044E0DFF8AC800A
:10182000404502D14FF001080FE0DFF8A4804045A9
:1018300002D14FF0020808E0DFF89880404502D15D
:101840004FF0030801E04FF0040808FA06F848EAF0
:101850000508CCF808804D68D9F80060ED024D46C7
:1018600001D5164300E096432E604D68DAF800601B
:10187000AD02554601D5164300E096432E604D68F3
:10188000DBF80060AD035D4601D5164300E09643EA
:101890002E604D68DEF80060ED03754601D51643F5
:1018A00000E096432E60641C0D682A46E5407FF4F4
:1018B00031AFBDE8F88F00000804014000001110AE
:1018C000001002400000014000080140000C0140EF
:1018D00000100140001401408068084000D0012041
:1018E00070470AB1016170470904FBE7014880684D
:1018F000704700000000002002488168027811440F
:101900008160704700000020074810B5016841F071
:1019100010010160032000F075F80F2000F006F8B8
:1019200000F024F8002010BD0020024070B50D4DDD
:1019300004464FF47A712878B1FBF0F00A4909683F
:10194000B1FBF0F000F0BCFA48B9102C07D200222D
:101950002146501E00F036F800206C6070BD01205A
:1019600070BD0000000000200C0000200C4808B5ED
:10197000816941F001018161816901F001010091FA
:10198000C16941F08051C161C06900F08050009090
:101990000448416821F0E06141F00071416008BDF8
:1019A0000010024000000140002809DB00F01F0287
:1019B000012191404009800000F1E020C0F80011B1
:1019C00070470000F0B40E4B1B680C46C3F30223B3
:1019D000C3F10705042D00D90425191D072901D2DB
:1019E000002300E0DB1E012606FA05F1491E214016
:1019F00099409E40761E16403143F0BC01F036BD42
:101A00000CED00E0064900F0070208684FF6FF03FE
:101A1000184040EA0220034A104308607047000063
:101A20000CED00E00000FA052DE9F0470F46050037
:101A300061D0434E306800F00700B84209D23068E8
:101A400020F0070038433060306800F00700B842EB
:101A500051D128683B4C810712D5400703D56068F7
:101A600040F4E06060602878000703D5606840F4C7
:101A7000605060606068A96820F0F0000843606012
:101A80002878C00728D06868012810D0216802286B
:101A900010D0890700292EDA616821F00301014383
:101AA0006160FFF723FF804641F288390DE021682D
:101AB0008903EFE78901EDE7FFF718FFA0EB0801C5
:101AC000494502D90320BDE8F0876068696800F0E5
:101AD0000C00B0EB810FEFD1306800F00700B84286
:101AE0000BD9306820F0070038433060306800F0D0
:101AF0000700B84201D00120E5E72878400705D566
:101B00006068E96820F4E0600843606028780007B6
:101B100006D56068296920F4605040EAC100606021
:101B200000F018F86168084AC1F30311515CC8401D
:101B30000649086006480068FFF7F8FE0020C2E783
:101B40000020024000100240386D00080C00002008
:101B5000040000200E4A51680E4801F00C03042BCB
:101B600011D0082B0FD10C48C1F38343C903C05CCB
:101B70000AD55168084AC1F34041921E515C054A9A
:101B80005043B0FBF1F070470449484370470000F0
:101B90000010024000127A00286D000800093D0084
:101BA0002DE9F84F040070D02078C04DC00749D00F
:101BB0006868C0F38100012807D06868C0F381001D
:101BC000022809D16868C00306D52868800339D582
:101BD00060680028E7D035E06068B0F5803F0BD042
:101BE00010B1B0F5A02F11D0286820F48030286003
:101BF000286820F4802002E0286840F480302860C3
:101C0000606890B1FFF772FE06460AE0286840F46B
:101C100080202860F0E700BFFFF768FE801B642883
:101C200073D828688003F7D50CE0FFF75FFE0646FF
:101C300005E000BFFFF75AFE801B6428F0D8286833
:101C40008003F7D420789A4E80074FF001094FF0B7
:101C5000000839D5686810F00C0F07D06868C0F329
:101C60008100022809D16868C00306D4286880076B
:101C700014D52069012808D110E02069B0B1C6F858
:101C80000090FFF733FE074605E00AE1FFF72EFE5E
:101C9000C01B0228C4D828688007F7D52868616966
:101CA00020F0F80040EAC10028600DE0C6F800808E
:101CB000FFF71CFE074604E0FFF718FEC01B0228D2
:101CC00023D828688007F7D4207800072CD57948D6
:101CD000A169D9B1C0F80090FFF708FE074604E0FB
:101CE000FFF704FEC01B02280FD8686A8007F7D5EB
:101CF00071484FF4FA510068B0FBF1F0009000BF5A
:101D00000098411E0091FAD20EE080E0C0F80080F9
:101D1000FFF7ECFD074604E0FFF7E8FDC01B0228D3
:101D200075D8686A8007F7D42078400760D5E869DD
:101D30000027C00008D4E86940F08050E861E869F5
:101D4000012700F0805000905C480168C90513D459
:101D50000168834641F480710160FFF7C7FD824648
:101D600006E000BFFFF7C2FDA0EB0A0064284ED8D2
:101D7000DBF80000C005F5D5E06801280AD008B1FD
:101D8000052813D0286A20F001002862286A20F074
:101D9000040002E0286A40F001002862E06841F295
:101DA000883B98B1FFF7A2FD82460BE0286A40F01D
:101DB00004002862EEE700BFFFF798FDA0EB0A01E0
:101DC00059455AD8286A8007F6D50CE0FFF78EFDF2
:101DD000824605E0FFF78AFDA0EB0A0159454CD881
:101DE000286A8007F6D41FB1E86920F08050E861C6
:101DF000E06988B36968C1F38101022944D00228EF
:101E0000C6F8608004D0FFF771FD044638E034E086
:101E1000FFF76CFD074604E0FFF768FDC01B0228D2
:101E20002BD828688001F7D4206AB0F5803F05D10F
:101E30006868A16820F4003008436860D4E90801AC
:101E40000843696821F4741108436860C6F860901B
:101E5000FFF74CFD044606E025E000BFFFF746FD16
:101E6000001B022809D828688001F7D51BE000BFB5
:101E7000FFF73CFD001B022802D90320BDE8F88FC4
:101E800028688001F4D40EE00128F7D06868226A3F
:101E900000F48031914204D1616A00F470108842EC
:101EA00001D00120EAE70020E8E70000001002402E
:101EB00000004242800442420C00002000700040BA
:101EC00010B5401EB0F1807F01D3012010BD4FF04E
:101ED000E02460610F21601701F0C8FA0020A061C2
:101EE00007202061002010BD10B590F83C20012A89
:101EF00022D0012280F83C20CA688C6822F440720B
:101F000022434C6822F4806222430C6822F400626F
:101F100022430C6922F4805222434C6922F400527D
:101F20002243C969002322F480420A4301684A64BB
:101F300080F83C30002010BD022010BD70B590F834
:101F40003C20012A26D0012480F83C40022280F85F
:101F50003D2003685A689D6822F070060A68324383
:101F60005A600D4B02689A4208D0B2F1804F05D0FA
:101F70000A4B9A4202D00A4B9A4204D1496825F092
:101F800080031943916080F83D40002180F83C10A7
:101F9000084670BD022070BD002C014000040040C6
:101FA0000008004010B5040003D094F83D0010B1C3
:101FB00007E0012010BD002084F83C00204600F01E
:101FC0001FF8022084F83D00211D206801F096F8DA
:101FD000012084F8460084F83E0084F83F0084F82D
:101FE000400084F8410084F8420084F8430084F8FB
:101FF000440084F8450084F83D00002010BD000036
:1020000008B500680649884208D10648C16941F010
:102010000201C161C06900F00200009008BD00002B
:10202000000400400010024090F83D10012901D04A
:1020300001207047022180F83D1000680B4988425A
:1020400008D0B0F1804F05D00949884202D0094933
:10205000884204D1816801F00701062903D0016894
:1020600041F001010160002070470000002C014098
:10207000000400400008004001680A6A41F21113A0
:102080001A4207D10A6A9B101A4203D10A6822F049
:1020900001020A60012180F83D100020704770B5F0
:1020A000044690F83C000025012817D0012684F84A
:1020B0003C60022084F83D002068826822F07702AC
:1020C00022F47F4282600868502838D00DDC202836
:1020D0004FD005DC90B3102811D14AE0022070BD2A
:1020E000302846D040280AD13BE060282FD0702805
:1020F0000DD0B0F5805F03D0B0F5005F12D00125A0
:1021000084F83D60002084F83C00284670BDCB6810
:10211000D1E90121206801F03AF82068816841F096
:10212000770109E0CB68D1E90121206801F02FF89F
:102130002068816841F480418160E1E719E0CA6864
:102140004968206801F0D8F85021206806E0CA6884
:102150004968206801F0E1F86021206801F021F869
:10216000CEE7CA684968206801F0C6F840212068B7
:10217000F4E7226801461046F0E72DE9F0410D46EC
:10218000040003D094F83D0018B108E00120BDE838
:10219000F081002084F83C00204600F041F8022045
:1021A00084F83D002068816844F207029143816011
:1021B000211D206800F0A2FF226890689169166ACC
:1021C0002B68AF69034340F20330814341EA0721A2
:1021D000A868EF6908434FF6FC418843E96840EA84
:1021E0000720014328692F6A000140EA07300843AD
:1021F00069686D6926F0220646EA05152943936051
:102200002268906154F8460B0162012004F81F090E
:10221000E0752076E0762077A0750020B7E7000013
:1022200000B585B0002100910191029103910168F0
:102230001A48B1F1804F1BD0194A914216D1C16999
:1022400041F00401C161C16901F004010491816997
:1022500041F0080181618069694600F0080004903E
:10226000C02000900F4800BFFFF746FA05B000BD40
:10227000C16941F00101C161C16901F0010104912D
:10228000816941F0040181618069694600F00400C0
:102290000490032000900448E6E70000001002408C
:1022A00000080040000C01400008014070B590F8A3
:1022B0003E60044690F83F5090F8423090F843203A
:1022C000022021B104290ED0012E1BD114E0012ED1
:1022D00018D1012B16D184F83E0084F84200012267
:1022E0000021206820E0012D0CD1012A0AD184F8B8
:1022F0003F0084F8430014E0012D03D1012B01D1EC
:10230000012A01D0012070BD84F83E0084F83F000E
:1023100084F8420084F8430001220021206800F084
:1023200029FF01220421206800F024FF20680168B1
:1023300041F001010160002070BD000000B585B0D2
:102340000021009101910291039100680B4988429C
:1023500012D10B48816941F00401816180696946AD
:1023600000F0040004904FF41060009002200190EF
:1023700003900448FFF7C0F905B000BD002C0140F0
:10238000001002400008014070B5044690F83C007F
:1023900000260D4601280FD0012084F83C006AB1C8
:1023A000042A1DD0082A2FD00C2A3FD00126002055
:1023B00084F83C00304670BD022070BD206800F0FB
:1023C000F9FE2068816941F0080181612068816916
:1023D00021F004018161206881692A69114311E0BB
:1023E000206800F00FFF2068816941F4006181617D
:1023F0002068816921F480618161206881692A698E
:1024000041EA02218161D2E7206800F027FF2068BD
:10241000C16941F00801C1612068C16921F004016E
:10242000C1612068C1692A69114311E0206800F088
:1024300041FF2068C16941F40061C1612068C16940
:1024400021F48061C1612068C1692A6941EA0221E1
:10245000C161ACE710B5040003D094F83D0010B1A1
:1024600007E0012010BD002084F83C00204600F069
:102470001FF8022084F83D00211D206800F03EFE78
:10248000012084F8460084F83E0084F83F0084F878
:10249000400084F8410084F8420084F8430084F846
:1024A000440084F8450084F83D00002010BD000081
:1024B00008B500680649884208D10648816941F498
:1024C00000618161806900F40060009008BD000037
:1024D000002C01400010024010B50446022249B110
:1024E00004290ED0082913D094F84100012816D0F1
:1024F000012010BD94F83E000128F9D184F83E2057
:102500000FE094F83F000128F2D184F83F2008E062
:1025100094F840000128EBD184F8402001E084F8D1
:1025200041200122206800F025FE0F4920688842E2
:1025300003D1426C42F4004242642068884208D0D1
:10254000B0F1804F05D00949884202D0084988423D
:1025500004D1816801F00701062903D0016841F028
:1025600001010160002010BD002C0140000400406A
:1025700000080040FEE7000010B50E4C00220821C4
:102580002046FFF7AEF900F017F80122102120468F
:10259000FFF7A7F900F010F8002210212046FFF7FE
:1025A000A0F900F009F820460122BDE810400821FA
:1025B000FFF797B9000C01400020401CC0B20A2868
:1025C000FBD370470C4800B5816985B041F0080124
:1025D00081618069694600F008000490182000902D
:1025E00003200390112001900448FFF785F800F0C4
:1025F0009DF805B000BD000000100240000C014035
:1026000010B50C4C012208212046FFF76AF9FFF7AC
:10261000D3FF012210212046FFF763F9FFF7CCFF1B
:10262000002210212046FFF75CF9BDE81040FFF7BB
:10263000C3BF0000000C01402DE9F0410024134EFF
:10264000074625466006040E012210213046FFF79A
:1026500048F9FFF7B1FF08213046FFF73DF908B10F
:10266000641CE4B2002210213046FFF73AF9FFF76C
:10267000A3FF6D1CEDB2082DE4D327B1FFF77CFF5B
:102680002046BDE8F081FFF7BBFFF9E7000C0140F1
:1026900070B5154E05460024280601D5012200E03C
:1026A000002208213046FFF71CF9FFF785FF0122C1
:1026B00010213046FFF715F9FFF77EFF00221021A9
:1026C0003046FFF70EF9072C04D1012208213046CD
:1026D000FFF707F96806050EFFF76EFF641CE4B20A
:1026E000082CD9D370BD0000000C014010B50E4C71
:1026F000012208212046FFF7F4F80122102120468C
:10270000FFF7EFF8FFF758FF002208212046FFF7F8
:10271000E8F8FFF751FF002210212046FFF7E1F80B
:10272000BDE81040FFF748BF000C014010B50A4C4F
:10273000002208212046FFF7D4F80122102120466C
:10274000FFF7CFF8FFF738FF20460122BDE8104021
:102750000821FFF7C6B80000000C014070B5104D0D
:10276000012208212846FFF7BCF8FFF725FF0122C8
:1027700010212846FFF7B5F8FFF71EFF082128466D
:10278000FFF7AAF808B1012400E00024002210217C
:102790002846FFF7A6F8FFF70FFF204670BD0000A0
:1027A000000C014010B54FF4E15304685A429C42BA
:1027B00001DD036002E0944200DA0260086898429A
:1027C00001DD0B6010BD9042FCDA0A6010BD000014
:1027D0002DE9F0410D461B4E04004FF400514FF41B
:1027E000805705D501223046FFF77BF8002204E030
:1027F00000223046FFF775F8012239463046FFF7D0
:1028000070F8002C00DA64420F4F386804644FF40B
:1028100080414C00002D05DA01223046FFF761F8B7
:10282000002204E000223046FFF75BF80122214637
:102830003046FFF756F8002D00DA6D4238684563E0
:10284000BDE8F081000C0140CC0000207CB51446AE
:102850000D4606466B4606223B21682000F080F8B4
:1028600000280BD1BDF8001049BA3180BDF8021024
:1028700049BA2980BDF8041049BA21807CBD7CB5D5
:1028800014460D4606466B4606224321682000F09A
:1028900067F800280BD1BDF8001049BA3180BDF8A7
:1028A000021049BA2980BDF8041049BA21807CBDC4
:1028B00010B5FFF787FE80216B2000F0C0F8642080
:1028C000FEF7C8FE00216B2000F0B9F8032000F0ED
:1028D00082F8002000F07AF8642000F099F80021D6
:1028E000382000F0ACF800216A2000F0A8F80021A0
:1028F000232000F0A4F88021372000F0A0F87520F4
:1029000000F011F8682801D0012010BD01216B20D2
:1029100000F095F800216C2000F091F8322000F0D2
:1029200077F8002010BD10B50446FFF7DFFED02079
:10293000FFF7AEFEFFF712FF2046FFF7A9FEFFF7F5
:102940000DFFFFF7D3FED120FFF7A2FEFFF706FF32
:102950000020FFF771FE0446FFF7E8FE204610BD99
:102960002DE9F0411D4614460F460646FFF7BEFE10
:102970007006000EFFF78CFEFFF7F0FE20B1FFF7A8
:10298000D5FE0120BDE8F0813846FFF781FEFFF754
:10299000E5FEFFF7ABFE012000EB4600C0B2FFF7FB
:1029A00077FEFFF7DBFE09E0012C0DD05FF00100A0
:1029B000FFF742FE641E05F8010BE4B2002CF3D1D0
:1029C000FFF7B4FE0020DDE70020F1E7C006010EAE
:1029D0001C2000F034B8C006010E1B2000F02FB8F8
:1029E000BC2801D3012110E0622801D302210CE0B0
:1029F0002A2801D3032108E0142801D3042104E08C
:102A00000A2801D3052100E006211A2000F017B89A
:102A100010B504464FF47A70844201D9044602E0AE
:102A2000042C00D20424B0FBF4F0401EC1B21920E3
:102A300000F005F86008BDE81040FFF7D1BF70B5A1
:102A40000C460546FFF752FED020FFF721FEFFF7A8
:102A500085FE50B92846FFF71BFEFFF77FFE204694
:102A6000FFF716FEFFF77AFE18B1FFF75FFE0120B1
:102A700070BDFFF75BFE002070BD2DE9F0411E46E2
:102A800015460F460446FFF731FE6006000EFFF7BD
:102A9000FFFDFFF763FE60B93846FFF7F9FDFFF76A
:102AA0005DFE00240CE0305DFFF7F2FDFFF756FEFF
:102AB00020B1FFF73BFE0120BDE8F081641CE4B2C9
:102AC000AC42F0D3FFF732FE0020F5E72DE9F041EC
:102AD00086B00024374800940194029403948169DD
:102AE00041F010018161816901F010010491816957
:102AF00041F020018161816901F020010491816927
:102B000041F004018161816901F00401049181694E
:102B100041F0080181618069274F00F008000490AE
:102B2000012208213846FEF7DCFEDFF89080002203
:102B30004FF218314046FEF7D4FE042000902048A2
:102B4000CDE9010469463846FEF7D6FD0820012587
:102B50000226CDE90005CDE9024669463846FEF772
:102B6000CBFD4FF21800CDE90005CDE902466946DC
:102B70004046FEF7C1FD202000901248CDE9010536
:102B800069464046FEF7B8FD4FF44070009001AA38
:102B9000112082E8510069464046FEF7ADFD002253
:102BA00011460820FEF70EFF0820FEF7FDFE06B0D6
:102BB000BDE8F0810010024000080140000C014017
:102BC000000031100000211010B592B000240F94C5
:102BD0001C2168461094FDF736FC202107A8FDF75C
:102BE00032FC25482349C0E9001441F61F41C0E9E1
:102BF0000241046144618461FFF72CFC08B1FEF7D7
:102C000012FD0F940FA91C481094FFF797F908B113
:102C1000FEF709FD602000904FF4E150CDE901047A
:102C20000394049405940022694613480694FFF720
:102C3000ABFB08B1FEF7F7FC0C2269460E48019485
:102C4000FFF7A2FB08B1FEF7EEFC07940894099485
:102C50004FF400500A94CDE90B4007A906480E94A2
:102C6000FFF742F908B1FEF7DEFC0348FFF766FB09
:102C700012B010BD002C0140CC00002010B58CB06B
:102C800024216846FDF7DFFB0024154809944FF026
:102C900080410A94C0E900144FF6FF71C0E9024177
:102CA000046184610320CDE900040120CDE9020420
:102CB0000494CDE905400794694609480894FFF754
:102CC0005CFA08B1FEF7AFFC099409A904480A941C
:102CD000FFF734F9002801D0FEF7A5FC0CB010BDB9
:102CE0001401002010B586B0002417480094019408
:102CF0000294039404941349059401604821C0E9A7
:102D000001144FF6FF71C0E903148461FFF74AF91B
:102D100008B1FEF788FC4FF48050009069460A48DD
:102D2000FFF7BDF908B1FEF77EFC049404A906483C
:102D30000594FFF703F9002801D0FEF774FC06B0F4
:102D400010BD0000000400405C01002010B58CB0F4
:102D500024216846FDF777FB00241648099414499E
:102D60000A94C0E900144FF6FF71C0E90241046102
:102D700084610320CDE900040120CDE9020404941C
:102D8000CDE90540079469460A480894FFF7F5F92C
:102D900008B1FEF748FC099409A906480A94FFF710
:102DA000CDF8002801D0FEF73EFC0CB010BD0000AD
:102DB00000080040A4010020FEE7FEE770B50024F3
:102DC0000021204600F0D8F80025002000F03EF950
:102DD0006D1CEDB2802DF8D3641CE4B2082CEFD347
:102DE00070BD000010B5FFF771FE064C0122110204
:102DF0002046FEF776FD20460122BDE81040510234
:102E0000FEF76FBD000C01402DE9F047144E002481
:102E100007464FF080084FF40079B51528FA04F200
:102E20003A4049463046FEF75CFD012229463046CD
:102E3000FEF757FD002229463046FEF752FD641C7E
:102E4000E4B2082CEAD3012229463046FEF749FDB8
:102E500029463046BDE8F0470022FEF742BD00009B
:102E6000000C014070B501220B4D5402214628464A
:102E7000FEF737FD0122160231462846FEF731FDE6
:102E8000002221462846FEF72CFD31462846BDE8A3
:102E900070400022FEF725BD000C014070B50A4DC0
:102EA0004FF40074002221462846FEF71AFD012245
:102EB00011022846FEF715FD21462846BDE8704060
:102EC0000122FEF70EBD0000000C014010B50020ED
:102ED0004FF47A720021491C9142FCD3401C90426D
:102EE000F8D3FFF77FFFAE2000F09FF8D52000F069
:102EF0009CF8802000F099F8A82000F096F83F2078
:102F000000F093F8D32000F090F8002000F08DF846
:102F1000402000F08AF8A12000F087F8C82000F0D7
:102F200084F8DA2000F081F8122000F07EF8812089
:102F300000F07BF8CF2000F078F8D92000F075F889
:102F4000F12000F072F8DB2000F06FF8302000F084
:102F50006CF8A42000F069F8A62000F066F88D2037
:102F600000F063F8142000F060F8AF2000F05DF886
:102F7000BDE81040FFF722BF10B50C4640F0B0008E
:102F800000F053F8102040EA141000F04EF804F05E
:102F90000F00BDE8104000F048B800002DE9F041F6
:102FA0000746CE004000083E801E15464FF0FF3811
:102FB000F1B2C0B2FFF7E0FF1148002400EB0515A5
:102FC0002819A0F5805090F8000E00F03FF8641C1E
:102FD000E4B2082CF4D308EB4700F1B2C0B2FFF71B
:102FE000CBFF00242819A0F5805090F8080E00F0BF
:102FF0002DF8641CE4B2082CF4D3BDE8F081000085
:10300000486D00082DE9F04115460E46074600249C
:1030100006E03019C1B23846FFF7C0FF641CE4B2C5
:103020002A5D002AF5D1BDE8F08110B50446FFF70E
:1030300019FF7820FFF7E8FE0020FFF7E5FE2046A5
:10304000FFF7E2FEBDE81040FFF728BF10B50446C9
:10305000FFF708FF7820FFF7D7FE4020FFF7D4FEE8
:103060002046FFF7D1FEBDE81040FFF717BF7047BD
:1030700008B500EBC00020F06040009000BF009851
:10308000411E0091FAD208BD0168486A002200B2D0
:103090004A6270477047FEF72FBC30B58FB02821C9
:1030A0006846FDF7D0F914210AA8FDF7CCF90121F3
:1030B0000804CDE900100024029402250491CDE912
:1030C00007504FF4E01009906846FEF769FD08B11B
:1030D00072B6FEE70F20CDE90A054FF48060CDE916
:1030E0000C4002210AA80E94FEF79EFC002801D095
:1030F00072B6FEE70FB030BD70470000F0B5026851
:10310000194B1A4C1A4D4FF08047984205D0B842DF
:1031100003D0A04201D0A84203D122F070064A6831
:103120003243984205D0B84203D0A04201D0A84211
:1031300003D122F44074CA6822434C6922F0800211
:10314000224302608A68C2620A688262984201D1A0
:1031500009690163012141610169C90703D001695E
:1031600021F001010161F0BD002C0140000400408C
:103170000008004010B501F01F030121046A9940C6
:103180008C430462016A9A401143016210BD10B57C
:10319000846842EA032224F47F440A432243826083
:1031A00010BD826822F070020A4342F0070181607C
:1031B0007047000030B5036A026A22F00102026221
:1031C0004268846924F073050C682C4323F00205DF
:1031D0008B682B430A4DA8420BD123F00805CB681E
:1031E00022F440722B434D6923F0040315438A698E
:1031F0002A434260846149684163036230BD000034
:10320000002C014030B5026A036A23F01003036208
:10321000436884690D6824F4E64444EA05248D6813
:1032200022F0200242EA05120B4DA8420ED1CD68D1
:1032300022F0800242EA05124D6923F4406343EA1A
:1032400085038D6922F0400243EA8503436084616F
:1032500049688163026230BD002C014030B5036AC9
:10326000026A22F4807202624268C46923F4007325
:1032700024F073050C682C438D6843EA05230C4D3C
:10328000A8420ED1CD6823F4006343EA05234D69BB
:1032900022F4405242EA05128D6923F4806342EA27
:1032A00005124260C4614968C163036230BD000019
:1032B000002C014030B5046A026A22F48052026296
:1032C0004268C3690D6823F4E64343EA05238D6829
:1032D00024F4005444EA0534064DA84204D14D6953
:1032E00022F4804242EA85124260C3614968016467
:1032F000046230BD002C014010B5036A046A24F05A
:1033000001040462846924F0F00444EA021423F006
:103310000A020A438461026210BD10B5036A046A9E
:1033200024F010040462846923F0A00324F47044A0
:1033300044EA023243EA01118261016210BD0000D9
:1033400070B5094D0E46696B03F00CFB0446304620
:1033500003F0DCFA296B03F005FB214603F070F95A
:10336000BDE8704003F096BA50000020FEE7000070
:103370002DE9F047254C11440E1AA06922498146D7
:1033800003F0C6F90746E062206A03F0BFFA616AFB
:10339000884603F0E7FA0546304603F0B7FA0646DA
:1033A00041464FF07E5003F0A9FB314603F0DAFAB4
:1033B000294603F045F903F06DFA05462062A06A3C
:1033C00042F210712844A062884202DC49428842DD
:1033D00000DAA1622078012802D10020A0622070CA
:1033E000A06A03F093FA394603F0BCFA0446284673
:1033F00003F08CFA494603F0B5FA214603F020F9B0
:10340000BDE8F04703F046BA0000484350000020F2
:103410002DE9F0410A4D0E4607461146686903F052
:10342000A1FA04463146384603F068FB296903F0E7
:1034300099FA214603F004F9BDE8F04103F02ABAF5
:1034400050000020490050EAC12018BF04204A0D56
:1034500018BF40F0010040F2FF72B2EB515F08BFAD
:1034600040F00200012808BF052070470907090E37
:10347000002804DB00F1E02080F80014704700F021
:103480000F0000F1E02080F8141D70472DE9F04195
:103490004F1E00EBC7010446D1E9000115461E4648
:1034A00037F006020DD02A46334602F0C3FD7F1ED8
:1034B00004EBC703D3E9002302F0A0FB37F00602B8
:1034C000F1D1022F25D0042F13D0062F18BFBDE84D
:1034D000F0812A46334602F0ADFDD4E90A2302F01A
:1034E0008DFB2A46334602F0A5FDD4E9082302F0FD
:1034F00085FB2A46334602F09DFDD4E9062302F0FF
:103500007DFB2A46334602F095FDD4E9042302F000
:1035100075FB2A46334602F08DFDD4E9022302F002
:103520006DFB2A46334602F085FDD4E90023BDE851
:10353000F04102F063BB012203F089BB02F05EBBE5
:10354000002213461046114602F008BC024A002031
:10355000110703F07CBB000001FDFFFF30380A2893
:1035600001D2012070470020704700002DE9FE4F76
:1035700007460E460025684600F0DAFF00246FF08B
:103580000F0AE8464FF0010957F8240056F82410B6
:10359000401A00D5404203F0B9F9514603F085FBCB
:1035A00058F8241011F0FF4F0BD003F0B1F84FF092
:1035B0007E5103F0A3FA0A4920F00040884205DC5E
:1035C00007E0084908440849884202D309FA04F090
:1035D0000543641C032CD7DB2846BDE8FE8F0000A2
:1035E000295C0F3E666666C19A99D9002DE9F04DB7
:1035F0008D4F21F0004A86B005460C46BA452ADBBD
:10360000AAEB070028430AD08848824501DC1AD17A
:10361000CDB106B02846BDE8F04DFFF78CBF844A17
:10362000844B284602F006FD07460E46824A834B2D
:103630002846214602F0FEFC06B03A463346BDE875
:10364000F04D02F0DBBA0120FCF7A3FF06B0BDE8A5
:10365000F04DFFF775BF7A48824542DABAF1795FDB
:103660000BDA2846FFF7EEFE042808BFFFF76EFFCF
:10367000284606B02146BDE8F08D2A460B46104686
:1036800002F0D8FC834602466E480E460B460621E1
:103690007844FFF7FBFE5A46334602F0CBFC8046E7
:1036A00069488A465A46334604217844FFF7EEFEBD
:1036B0005A46334602F0BEFC00223B4602F09EFA18
:1036C00002460B464046514602F048FB2A46234636
:1036D00002F0B0FC06B02A462346BDE8F04D02F0E9
:1036E0008DBA284624F0004100223D463B4602F0B8
:1036F0009FFD4FF0FF3203F0AAFA064602465348F8
:103700000F460B4606217844FFF7C0FE32463B4683
:1037100002F090FCCDE900014D4832463B460421C1
:103720007844FFF7B3FE32463B4602F083FC0022AA
:103730002B4602F063FA834602913046394602F086
:10374000EFF9804643480D46504517DCDDE900019E
:103750005A46029B02F002FB42462B4602F06AFCEC
:1037600042462B4602F04AFA012203F070FA304A30
:10377000304B02F04FFE304A304B4CE04FF0000A25
:1037800052460B46404602F039FACDE90310524644
:103790002B461046194602F04DFC32463B4602F0DD
:1037A00047FDDDE9033202F0D9FA06460F46DDE9AE
:1037B00000015A46029B02F0D1FA83460091012291
:1037C0003046394603F043FA194A1A4B02F030FDED
:1037D00006460F4601224046294603F038FA5A466B
:1037E000009B02F027FC32463B4602F013FE0646E1
:1037F0000F4601225046294603F029FA0E4DDFF804
:1038000058802A46434602F013FD32463B4602F0FA
:103810000FFD2A46434602F00BFD002CD8BF81F075
:10382000004106B0BDE8F08D0000F03F0000F07FE1
:10383000075C143326A6913C182D4454FB21F93F14
:103840000000E03FEC48000002490000764800001C
:103850008C4800003333EF3FFB21E93F2DE9F84F5F
:1038600004460D4621F0004000917349814211DC6D
:103870007249884201DC06D12CB120462946BDE8B8
:10388000F84FFFF758BE6E48002DCCBF6D496E490A
:10389000BDE8F88F6D49814211DD6D498142D8BF85
:1038A0004FF0FF366DDD20462946FFF7CBFD04289B
:1038B00008BFFFF74BFE20462946BDE8F88F654953
:1038C000654F25F00045814233DD6449814219DDB1
:1038D000002632464FF080432046294602F08EF9FA
:1038E00080468A4601222046294603F0B0F900228C
:1038F0003B4602F08FFD4246534602F02FFA044643
:103900000D463EE001260022BA463B4620462946A7
:1039100002F074F980460F4600225346204629469D
:1039200002F078FD42463B4602F018FA04460D4686
:1039300027E04B4981421BDDDFF828A10226002247
:1039400053462046294602F075FB00223B4602F012
:1039500055F980460F46002253462046294602F07C
:1039600059FD42463B4602F0F9F904460D4608E08F
:10397000032622462B4600203B4902F0EFF904467D
:103980000D4622462B461046194602F053FB8B4645
:10399000824602460B4602F04DFB0746024633487C
:1039A00088460B4606217844FFF770FD52465B4679
:1039B00002F040FB82462E488B463A46434605219C
:1039C0007844FFF763FD3A46434602F033FB024674
:1039D0000B46002E504659460CDA02F00FF92246EB
:1039E0002B4602F027FB01B022462B46BDE8F04FE4
:1039F00002F01EBC02F002F922462B4602F01AFB2E
:103A00001C4A7A4402EBC603D3E9002302F002FD0C
:103A100022462B4602F0FEFC174A7A4402EBC6030C
:103A2000D3E9002302F004FC009A002AB8BF81F019
:103A30000041BDE8F88F0000000010440000F07F56
:103A4000182D4454FB21F93FFB21F9BF0000DC3F56
:103A50000000203E0000F33F0000F03F0000E63F82
:103A6000008003400000F83F0000F0BF8E460000D9
:103A70004C460000EA450000B24500002DE9F04D3B
:103A80009446CCF1000423F000464CEA0404524F63
:103A900046EAD4749A46884621F00042BC4206D8D1
:103AA000454240EA050442EAD474BC4204D9BDE868
:103AB000F04D6246FFF742BDAAF14055A5F17F6582
:103AC00055EA0C040BD0022404EAAA74434DDFF833
:103AD00010E144EAD87452EA000B04D00CE0BDE8CF
:103AE000F04DFFF7BBBE002C14BF012CBDE8F08DDC
:103AF000022C30D0032C32D056EA0C0B0AD0BE4236
:103B000020D1BA4209D126F0804622F080423346C5
:103B1000114617E000291ADB25E0DFF8C8B0FB44A6
:103B2000002C04BFDBE90001BDE8F08D012C02BFD1
:103B3000DBE9000181F00041BDE8F08D022C0AD0E4
:103B4000032C0CD0BA4212D1B8F1000F0BDA234883
:103B50002549BDE8F08D28462449BDE8F08D28466A
:103B60007146BDE8F08D1D482149BDE8F08D921BDE
:103B700012153C2AC4BF19481D490EDCBAF1000FCA
:103B8000BEBF12F13C0F0020014606DB624602F088
:103B9000E5F821F00041FFF761FE002C08BFBDE809
:103BA000F08D012C04BF81F00041BDE8F08D114A79
:103BB000114B022C07D002F02DFC2A46BDE8F04D37
:103BC0000A4B02F027BC02F025FC2A46BDE8F04D66
:103BD000064B02F02DBB00000000F07F182D44546E
:103BE000FB2109C046450000FB21F9BFFB2109402C
:103BF000FB21F93F075C143326A6A13C08B560B150
:103C000020208DF8000028208DF8010030208DF84C
:103C1000020038208DF8030004E0A3220421684646
:103C2000FCF709FC6A46042140F69E2001F0E2FE02
:103C300001F0A0FB08BD00003EB5044602208DF84F
:103C40000000CA208DF80100E3208DF80200092051
:103C50008DF803006A460421682001F0CBFEA32002
:103C60008DF80000610609D5C0218DF80110C8212A
:103C70008DF80210C2218DF8031005E08DF80100C7
:103C80008DF802008DF8030014F4C07F09D0C42120
:103C90008DF80410CC218DF80510C6218DF8061082
:103CA00005E08DF804008DF805008DF806008DF80C
:103CB00008008DF807008DF809006A460A2140F6D1
:103CC000A72001F097FEA0074FF0D80503D02020D1
:103CD0008DF8000001E08DF800506A46012140F6A1
:103CE000B62001F087FEA00601D5012000E00020EB
:103CF00000F08EF814F4C07F1ED0E0050AD5B22083
:103D00008DF800008B208DF80100B6208DF80200A0
:103D10009B2009E0B0208DF8000080208DF8010084
:103D2000B4208DF8020090208DF803006A4604212B
:103D300040F6A22001F05EFEE1074FF40B6022D0B6
:103D4000F8218DF800106A46012101F053FEFA2196
:103D5000072000F039FB072000F004FB012000F0F1
:103D600021FB642000F0C4FB4FF4FA7000F0D0FB9C
:103D7000C821254800F0BEFA282000F0D3FA0A2016
:103D800000F0E0FA05E08DF800506A46012101F0EC
:103D900031FEA00703D5D9208DF8000001E08DF891
:103DA00000506A46012140F23D7001F023FE600799
:103DB00001D5012000E0002000F048F8E00601D520
:103DC000012000E00020FFF719FF104D44F008002B
:103DD000688101F0CFFA0020A873600601D50620A3
:103DE000A87314F4C07F02D0A87B801DA87314F0C0
:103DF000140F02D0A87B1030A873A00702D0A87BB4
:103E0000001DA87300203EBD09E3CA02EC0100209A
:103E10000EB54FF4976310B106A107C901E008A2DF
:103E200007CA8DE807006A460921184601F0E2FD3D
:103E30000EBD0000B8AAB38DB4980D355D0000002A
:103E4000B8AAAAAAB088C3C5C700000008B560B167
:103E5000C0208DF80000C2208DF80100C4208DF82C
:103E60000200C6208DF8030004E08B22042168467E
:103E7000FCF7E1FA6A46042140F6982001F0BAFD09
:103E800001F078FA08BD0000C8234FF480620249AF
:103E900040F6F63001F050B9887300082DE9FF4F65
:103EA00089B01746DDE9165200244C4E88468146FB
:103EB0002C80A246B07B694601F0EAF94FF0FF3B47
:103EC00018B158460DB0BDE8F08F708910F0140F8E
:103ED0003CD0009909BA21F0FF039DF803100B4371
:103EE0003B6001991B1409BA21F0FF029DF80710ED
:103EF0005B430A437A6002999DF80B4009BA21F0AE
:103F0000FF012143B960039C091424BA24F0FF0C7B
:103F10009DF80F4012144CEA040CC7F80CC04FEA8D
:103F20002C47494302FB023207FB071111441024BE
:103F3000A1F17061B1F1007F04D901F01BFAA5F87D
:103F400000A0BEE7298841F48071298042066946B5
:103F500011D50A19A41D13885BBAA8F8003053883C
:103F60005BBAA8F80230928852BAA8F804202A88CE
:103F700042F008022A8010F4C07F11D00A19A41D53
:103F800013885BBAA9F8003053885BBAA9F80230ED
:103F9000928852BAA9F804202A8842F070022A8036
:103FA000800716D00C44E07800F0C00500F03F0117
:103FB0006078C00706D0C80801F007013268491CC4
:103FC00002B190476078000703D5716809B1A8096C
:103FD00088470C9800F02EFE002073E7EC010020CB
:103FE0002DE9FF41044603A800F08EFFBDF80C0048
:103FF000410CC3032F48028902F00300550754F80F
:10400000200000D54042C2F3C105960654F8255061
:1040100000D56D42C2F38116D20554F8264000D572
:104020006442A0FB0367C21702FB037200FB01207E
:10403000820042EA9670A5FB0367EA1702FB03724F
:1040400005FB0122950045EA9672A4FB0367E5177C
:1040500005FB037304FB01318B0043EA9671030EE9
:104060008DF80030030C8DF80130030A8DF8023012
:104070008DF80300100E8DF80400100C8DF805006B
:10408000100A8DF80600080E8DF80800080C8DF84F
:104090000900080A8DF80A008DF807208DF80B102A
:1040A0006A460C214FF4257001F0A4FC04B0BDE871
:1040B000F0810000EC01002030B5044613A285B069
:1040C00007CA8DE807004FF0FF35C82C16D8C82066
:1040D000B0FBF4F1491E080A8DF80C008DF80D10A4
:1040E00003AA022140F2162001F084FC30B96A468E
:1040F0000C2140F6C12001F07DFC10B1284605B02E
:1041000030BD054884810020F9E70000FEF2ABC411
:10411000AAF1DFDFBBAFDFDFEC010020F8B53049EB
:10412000098901F0030250F822404A0700D5644291
:10413000C1F3C1028B0650F8222000D55242C1F3D0
:10414000811350F82330C80500D55B42254984FB14
:104150000140850045EA947082FB0142A40F44EAC5
:10416000820483FB0121950F45EA8105010E8DF83C
:104170000010010C8DF80110010A8DF802108DF865
:1041800003006A4604214FF4747001F033FC4FF0D1
:10419000FF3688B9200E8DF80000200C8DF8010044
:1041A000200A8DF802008DF803406A4604214FF47E
:1041B000757001F01FFC08B13046F8BD280E8DF86F
:1041C0000000280C8DF80100280A8DF802008DF8F7
:1041D00003506A4604214FF4767001F00BFCF8BDE1
:1041E000EC01002009E3CA022DE9FF4104463CA08E
:1041F00004F00303006802903AA0006803903AA01C
:1042000006683AA0056802A8C15C8DF80010C4F3E6
:10421000C101425C8DF80120C4F38112805C8DF8ED
:10422000020003A8C35C8DF80430415C8DF80510D2
:10423000805C8DF806006A46032140F2264001F0BA
:10424000D9FB4FF0FF37E0BB01AA032140F22A401F
:1042500001F0D0FBA8BBCDE9006560070BD59DF848
:10426000000040F001008DF800009DF8040040F0CF
:1042700001008DF80400A0060BD59DF8010040F068
:1042800001008DF801009DF8050040F001008DF857
:104290000500E0050BD59DF8020040F001008DF807
:1042A00002009DF8060040F001008DF806006A4605
:1042B00003214FF4886001F09DFB10B901AA03218E
:1042C00000E004E040F2314001F094FB18B13846C0
:1042D00004B0BDE8F081064804810020F8E7000042
:1042E0004CCD6C000CC92C00365676002646660074
:1042F000EC0100204FF47A7290FBF2F008B54843CD
:10430000010E8DF80010010C8DF80110010A8DF8D6
:1043100002108DF803006A4604214FF4AE7001F0DC
:1043200069FB08BD0521B0FBF1F008B5010A8DF865
:1043300000108DF801006A4602214FF4AD7001F0C3
:1043400059FB08BD0521B0FBF1F008B5010A8DF855
:1043500000108DF801006A4602214FF4AC7001F0A4
:1043600049FB08BD08B500218DF80010C10702D037
:1043700030218DF80010810705D59DF8001041F01F
:104380000C018DF80010400705D59DF8000040F0A5
:1043900003008DF800006A4601214FF4A47001F07B
:1043A00029FB08BD08B560B1042800D90420401ECF
:1043B0008DF800006A46012140F24F1001F01AFB0F
:1043C00008BD0120F3E700002DE9FC410546400748
:1043D0004FF0FF367CD0B1F5C86F79D8084602F0AF
:1043E000ADFA3E4902F094F9074601A800F06EFDCF
:1043F0009DF80400022806D004280DD008282ED0ED
:10440000102865D134E00E21384602F04EFC02F04F
:104410005DFA84B2324907E00D21384602F045FCCE
:1044200002F054FA2F4984B2384602F09BFA02F0A7
:104430004DFA210A8DF8001080B28DF80140010A72
:104440008DF802108DF80300E8076C4620D0224654
:1044500002214FF4EA7001F0CDFAC8BB11E00C2143
:10446000384602F022FC02F031FA84B21E49DBE742
:104470000B21384602F019FC02F028FA84B21B49DD
:10448000D2E7A21C02214FF4927001F0B3FAF8B9FE
:10449000A8070DD56A4602214FF4EC7001F0AAFA84
:1044A000B0B9A21C02214FF4947001F0A3FA78B9BC
:1044B000680710D56A4602214FF4EE7001F09AFAAF
:1044C00030B9A21C02214FF4967001F093FA10B19A
:1044D0003046BDE8FC810020FBE7000000004843B7
:1044E000000040460000C045000040450000C044B8
:1044F0000521B0FBF1F008B5010A8DF800108DF828
:1045000001006A4602214FF4EF7001F073FA08BD12
:104510000521B0FBF1F008B5010A8DF800108DF807
:1045200001006A4602214FF4ED7001F063FA08BD04
:104530002DE9FE430646264801AB042240680D21C2
:104540000078FEF70DFA10B10720BDE8FE839DF854
:1045500004101C2000EAD1029DF80710DFF87490C7
:10456000C1F301131A438DF800209DF80520C1F313
:10457000810300EAD2021A438DF801209DF806203B
:1045800001F0030100EAD20008430024124F8DF825
:104590000200A0466D46285D10B146F824900AE05E
:1045A00046F824800DE000BF56F82400394602F09A
:1045B000D9F946F82400285D401E10F0FF00285568
:1045C000F2D1641CE4B2032CE5D30020BDE7000067
:1045D000100000207B14AE3E1D5A843F2DE9FE4F93
:1045E00005460120C14E8DF800004FF000088DF8FF
:1045F000018030680C461746817C70686B46022249
:104600000078FEF73AFA4FF0FF3A00287AD1C82036
:10461000FDF720F88DF8008030686B460122C17BE1
:1046200070680078FEF729FA0028EFD130686B46F1
:104630000122417970680078FEF71FFA0028E5D161
:1046400030686B460122817C70680078FEF715FAAD
:104650000028DBD130686B460122C17D706800788C
:10466000FEF70BFA0028D1D130686B4601220179A0
:1046700070680078FEF701FA0028C7D14FF00C09E6
:104680008DF8009030686B460122017970680078DF
:10469000FEF7F3F9002835D10F20FCF7DBFFB06AF5
:1046A0006B460122407A8DF800003068817870688E
:1046B0000078FEF7E2F9002824D1B06A6B460122A7
:1046C000007A8DF800003068417870680078FEF755
:1046D000D4F9002873D1B06A807A0FB140F0E000BD
:1046E0008DF8000030686B4601228179706800788F
:1046F000FEF7C3F9002862D12FB1B06AC07A40F04A
:10470000E00001E04AE018208DF8000030686B46B8
:104710000122C17970680078FEF7AFF9F0BB17B1DC
:10472000C820FCF797FF40208DF8000030686B46EA
:104730000122017970680078FEF79FF970BB78203C
:104740008DF8000030686B4601224179706800786E
:10475000FEF793F910BB3220FCF77CFF8DF8008048
:10476000306847466B464179706801220078FEF751
:1047700084F998B931687068B046897A00786B46D8
:104780000222FEF7EDF848B9BDF80000AF6040BA6C
:10479000B0FBF9F06F60C6B22F6000E00FE0A760D9
:1047A00067602760002739E0D8F80010D8F80400C7
:1047B0006B46C97A00780C22FEF7D2F810B1504649
:1047C000BDE8FE8FBDF80000236840BA02B2BDF814
:1047D0000200BDF804101A44226040BA626800B2B8
:1047E0001044606049BAA06809B20844A060BDF8EE
:1047F00006002B6840BA02B2BDF808001A4440BA5D
:1048000001B2BDF80A002A606A6840BA11446960C2
:10481000A96800B208447F1CFFB2A860B742C3D3A6
:1048200028688322C117090441EA104100040023CB
:10483000FBF7DAFC32460023FBF7D6FC28606868F9
:104840008322C117090441EA104100040023FBF749
:10485000CBFC32460023FBF7C7FC6860A8688322C4
:10486000C117090441EA104100040023FBF7BCFC16
:1048700032460023FBF7B8FCA86020684FF40065BF
:10488000C117090441EA104100042A460023FBF73E
:10489000ABFC32460023FBF7A7FC206060682A4689
:1048A000C117090441EA104100040023FBF79CFCF6
:1048B00032460023FBF798FC6060A0682A46C117C7
:1048C000090441EA104100040023FBF78DFC324645
:1048D0000023FBF789FCA060002802DDA0F58030F2
:1048E00001E000F58030A060002069E710000020A2
:1048F0002DE9F84F81462E488846002540686B46D2
:10490000032200780D21FEF72BF810B10720BDE837
:10491000F88F9DF80000002400F01F008DF80000C3
:104920009DF801006FF00F0B00F01F008DF80100E3
:104930009DF802006E4600F01F008DF802004FF057
:10494000010A00BF59F8241058F82400081A00D5AD
:10495000404201F0DBFF594602F0A7F90746305DFF
:10496000C0B1144802E0144901F0FCFF315D491E5A
:1049700011F0FF013155F6D10146384601F0C8FE6D
:104980004FF07E5102F0BAF80C4920F00040884206
:1049900005DC07E00A483844B0F1D97F02D90AFAA9
:1049A00004F00543641C032CCCDB2846AFE7000071
:1049B000100000200000C84154E3853F295C0F3EF1
:1049C0000000E0BE00B5024600F00DF80346D01C22
:1049D00000F009F843EAC003901D00F004F843EA30
:1049E000801080B200BD90F90010002902DD4FF068
:1049F0000000704702DA4FF00400704790F9011090
:104A0000002902DD4FF00100704702DA4FF0050087
:104A1000704790F90200002802DD4FF00200704755
:104A200002DA4FF0060070474FF0070070470000B1
:104A3000FCF76AFFFEF731FBFEF748F8FEF7C4F813
:104A4000FEF750F9FEF71AF9FEF780F9FEF73EFA85
:104A5000FEF7B4F9FDF72CFF4FF4FA70FCF7FAFDFE
:104A600000F0E2F907E002214AA20846FEF7CAFA7E
:104A7000C820FCF7EFFDFDF71BFF0028F3D1022152
:104A800048A20846FEF7BEFA07E0022149A20846FE
:104A9000FEF7B8FAC820FCF7DDFD00F0C5F90028E4
:104AA000F3D1022147A20846FEF7ACFA00221146D4
:104AB0001720FCF787FF1720FCF776FFFEF77EF93B
:104AC00000214448FDF708FD0C214248FDF704FD94
:104AD0003C214148FDF7EAFB3C214048FDF7E6FB5D
:104AE0003F4C404D404E414FDFF80481DFF80491C8
:104AF000FCF79CFD206801F077FD02460B463EA1C5
:104B00004048FBF795FB01213E4A0846FEF77AFA3A
:104B10003DA13C482A68FBF78BFB3A4A0121022061
:104B2000FEF770FA39A137483268FBF781FB354A46
:104B300001210320FEF766FA386801F055FD0246B0
:104B40000B4633A12F48FBF773FB2E4A08210120A7
:104B5000FEF758FAD8F8000001F046FD02460B4671
:104B60002EA12848FBF764FB264A08210220FEF705
:104B700049FAD9F8000001F037FD02460B462AA198
:104B80002048FBF755FB1F4A08210320FEF73AFA9D
:104B9000AEE700004D505520436F6E6E6563742E76
:104BA0002E2E00004D5055204F4B2020202020203D
:104BB00020000000444D50204C6F6164696E672EE8
:104BC0002E2E0000444D5020526561647921202032
:104BD00020200000CC00002014010020A4010020AF
:104BE0004C000020880000208C0000209000002055
:104BF00094000020980000206469733A252E3266E4
:104C000020000000B80000204C25640052256400FC
:104C10007069743A252E316600000000726F6C3A9C
:104C2000252E3166000000007961773A252E316625
:104C300000000000704700002DE9F041124C20F008
:104C40000101002594F8240010B10020BDE8F08196
:104C5000A07A4FF0FF3668B10840277C2074884264
:104C600000D0354641B1012000F02EFF00F082FB5C
:104C700038B127743046E9E7207D00B1012000F00B
:104C800023FF2846E2E70000100000202DE9F74F3F
:104C90008EB00CA902A8CDE900010BAB03AA09A9AB
:104CA00007A8FFF7FBF818B1012011B0BDE8F08F9D
:104CB000BDF80800C0057DD5039801F027FE6FF010
:104CC0001D04214601F0F1FF8246049801F01EFE0A
:104CD000214601F0EAFF8146059801F017FE2146C2
:104CE00001F0E3FF8046069801F010FE214601F036
:104CF000DCFF05460121504601F0D7FF064641463C
:104D000001F030FE04464FF04041484601F02AFED3
:104D10000746294601F026FE214601F091FC01F0EC
:104D200063FCFEF763FC4FF0663B5A463D4B01F0D7
:104D300081F900F031FF0E9908600121404601F031
:104D4000B4FF4146009001F00DFE04463846494646
:104D500001F008FE214601F0D1FE4FF07E5101F036
:104D60006FFC01F041FC07460C463046494601F015
:104D7000F9FD06462946009801F0F4FD314601F0A0
:104D80005FFC01F031FC3A462346FEF777FE5A46B7
:104D9000244B01F04FF900F0FFFE0F9908602946FF
:104DA000084601F0DFFD07464146084601F0DAFDFE
:104DB000064600E034E04946084601F0D3FD0446CB
:104DC0005146084601F0CEFD214601F039FC31463E
:104DD00001F094FE394601F091FE01F005FC064613
:104DE0000C462946504601F0BDFD05464146484661
:104DF00001F0B8FD294601F023FC012101F055FF27
:104E000001F0F2FB32462346FEF738FE5A46054BC8
:104E100001F010F900F0C0FE10990860002044E78E
:104E2000022042E766A64C4010B5FDF7CBFB00F030
:104E3000F1F808B10A2010BD782000F07FFD10F0D5
:104E4000FF0F01D0012010BD7820FFF7F5FE10F014
:104E5000FF0F01D0022010BD642000F02FFD10F0E4
:104E6000FF0F01D0032010BDFFF70EF810F0FF0F69
:104E700001D0042010BD1448FFF7A4FDFFF7B4F9DA
:104E800010F0FF0F01D0052010BD40F27310FEF7A7
:104E9000D3FE10F0FF0F01D0062010BD6420FFF7F5
:104EA0000BF910F0FF0F01D0072010BD00F0CCFD72
:104EB00008B1082010BD012000F026FC10F0FF0012
:104EC000F8D0092010BD00003C0000200D494A7AAE
:104ED00042B1012A08D0022A0FD0032A0FD04FF086
:104EE000FF307047022200E004220270C97C11B139
:104EF0001106C90D0170002070470822F5E7102245
:104F0000F3E70000100000200F494A7A42B1012A5D
:104F100009D0022A11D0032A12D04FF0FF30704777
:104F20004FF4804201E041F69C720280C97C11B1CD
:104F3000C2F34E010180002070474FF48052F4E725
:104F40004FF40062F1E70000100000200B49097ADD
:104F500039B1012907D002290AD003290BD0002139
:104F600003E0FA2101E04FF4FA710180002070475C
:104F70004FF47A71F9E74FF4FA61F6E71000002078
:104F80000A49097A41B1012908D002290AD0032926
:104F90000AD04FF0FF307047054900E00549016035
:104FA000002070470449FAE70449F8E710000020A0
:104FB0000000034300008342333303423333834111
:104FC0000C49C97A072913D2DFE801F01204060A56
:104FD0000C0E1000BC2100E062210180002070470F
:104FE0002A21FAE71421F8E70A21F6E70521F4E778
:104FF0000021F2E710000020054991F8242012B1A9
:105000004FF0FF307047C9890180002070470000D1
:10501000100000202DE9FC41464C80208DF8000056
:1050200020686B460122817C60680078FDF725FDD1
:105030004FF0FF37002875D16420FCF70BFB0025EB
:105040008DF8005020686B460122817C60680078F2
:10505000FDF713FD002865D120686B460622817D8F
:1050600060680078FDF77CFC00285BD19DF80500A6
:105070009DF80310C007400F01F0010140EA410014
:105080009DF801104FF0010601F00101084304D022
:10509000012831D0022810D044E020686B4601225C
:1050A000C17860680078FDF75BFCD8BB9DF8000014
:1050B00010F00F0036D004281ED0E574FF2004F84D
:1050C0000A0F4FF6FF7104F8020C04F8010C60702F
:1050D000A180A0712072A67026766576E572A57211
:1050E000E56025616561A576E576A5834FF4FA60F4
:1050F00000F046FBB0B901E0E674DFE7022000F003
:1051000061FA78B92A2000F0A3FB58B9322000F0E8
:10511000D5FB38B90020FFF78FFD18B9002000F04B
:1051200085FA10B13846BDE8FC81002000F006FC8D
:105130000020F8E7100000202DE9FF4FDFF89480F1
:10514000064685B098F8250015460F464FF0FF3902
:10515000B0BBAFB3002420E0301B102800DD1020CE
:1051600080B283463A1901469246204600F042FC3E
:1051700030BB6A465946204600F0D2F800BB504684
:105180005A466946FBF72BF920B16FF0010009B0D0
:10519000BDE8F08F04EB0B0084B2B442DCD3280AE4
:1051A0008DF810008DF81150D8F80000444604AB7B
:1051B000817ED8F8040002220078FDF75EFC08B179
:1051C0004846E4E7012084F825000898E0840020A0
:1051D000DDE70000100000202DE9F84305464FF000
:1051E000FF39282844D80727284C00267DB1012004
:1051F00000F0FCFA20208DF800004FF00108012D8E
:1052000017D0052D18D88DF8018005201FE000204B
:1052100000F0ECFA8DF800608DF8017020686B46A4
:105220000222817C60680078FDF727FC00BB2675B0
:1052300029E08DF80160E8E7142D04D802208DF8EC
:1052400001000A2003E003208DF80100142000F083
:10525000FFFA9DF801006B4607EB80108DF8010006
:1052600020680222817C60680078FDF706FC10B19E
:105270004846BDE8F8830820A072267384F814809D
:105280000020FFF7D9FC0020F3E700001000002009
:105290002DE9F843214C0646174694F82400894628
:1052A0004FF0FF3890B3A07A80B320686B4602229B
:1052B000817A60680078FDF753FB38BBBDF80000C9
:1052C00045BAB54202D2002038701FE060684188BC
:1052D000B5EB510F11D9216800786B46497C01224A
:1052E000FDF73EFB90B99DF80000C00605D500F023
:1052F00041F86FF00100BDE8F8832068F2B24B4638
:10530000C17A60680078FDF72BFB08B14046F2E7F0
:10531000B5FBF6F0401E38700020ECE710000020CE
:10532000F8B516000D464FF0FF371FD0104CA17A8C
:10533000E1B1010A8DF80010C0B28DF801004119E9
:1053400060684289914211D8216800786B46097ED5
:105350000222FDF792FB48B92068EAB23346417D4C
:1053600060680078FDF7FCFA002800D03846F8BDE8
:1053700010000020F8B5564C4FF0FF36A07A0028F8
:105380007DD000258DF8005020686B460122C17B3E
:1053900060680078FDF771FB002870D120686B46CB
:1053A0000122417960680078FDF767FB002866D12B
:1053B00020686B460122017960680078FDF75DFB8B
:1053C00000285CD194F82400E0B30C208DF8000094
:1053D00020686B460122017960680078FDF74DFB7B
:1053E000002872D13220FCF735F9C0208DF800007A
:1053F000A07AC00702D0E0208DF8000020686B463C
:105400000122017960680078FDF737FB00285CD144
:10541000607C18B102208DF8000001E08DF800508A
:1054200020686B460122C17B60680078FDF725FB90
:1054300028BB8DF8005020686B46012241796068D6
:1054400000783EE0FFE704208DF8000020686B46FE
:105450000122017960680078FDF70FFB78B9A07C24
:1054600090B9A07AC0070FD05FF060008DF80000FF
:1054700020686B46012201796068007800E024E032
:10548000FDF7FBFA08BB01E04020EFE73220FCF714
:10549000E1F8607C18B101208DF8000001E08DF882
:1054A000005020686B460122C17B60680078FDF7E0
:1054B000E4FA50B92068064B012241796068103344
:1054C0000078FDF7DAFA002800D03046F8BD000079
:1054D000100000202DE9F047394C82468AB094F83C
:1054E00024000F4620B1002000F00EF9012600E054
:1054F000002607A8FFF72AFD06A8FFF7E7FC09A882
:10550000FFF75EFD08A8FFF777FD94F80A9094F87E
:1055100010800025002239465046FFF75FF810B191
:105520006D1C022DF6DB022D1AD00025012203A9E5
:105530006846FFF753F810B16D1C022DF6DB022D03
:105540000ED003A93846FEF711F8C7B26946504697
:10555000FFF7CEF910F0FF0F4FF0000502D002E088
:10556000002503E001250FB945F00205FF20207258
:105570006072E0724FF6FF71E181A0722074012029
:105580002073BDF81C0000F0FBF89DF8180000F037
:1055900019F8BDF8240000F05BF9BDF8200000F018
:1055A0008DF9484600F0CAF94046FFF745FB16B1B1
:1055B000012000F0A9F80AB02846BDE8F0870000F5
:1055C0001000002038B5184C4FF0FF35A17A19B300
:1055D000022806D0042806D008280ED010281BD197
:1055E0000DE0002000E008208DF80000607A9DF8B2
:1055F0000010B0EBD10F04D005E01020F4E7182024
:10560000F2E7002038BD20686B460122C17960684E
:105610000078FDF732FA08B1284638BD9DF8000041
:10562000C0086072EDE7000010000020F8B5354CAE
:105630000546A07CA84201D10020F8BD31484FF0BA
:10564000FF366B46D0E900104FF00102097900786F
:1056500035B3FDF785F970BB9DF800006B4620F06F
:1056600020008DF800002068012201796068007830
:10567000FDF703FAF8B90320FBF7ECFF02208DF8E1
:10568000000094F8220078B382202BE020686B465B
:105690000122017D60680078FDF7EFF958B92EE02E
:1056A000FDF75EF938B9A07AC0079DF8000003D075
:1056B00040F0200002E00CE020F020008DF8000017
:1056C00020686B460122017960680078FDF7D5F902
:1056D00008B13046F8BD0320FBF7BCFF94F8220068
:1056E00000B180208DF8000094F823000028CDD070
:1056F0009DF8000040F030008DF80000C6E7A5746A
:105700009AE700001000002038B51C4C94F82410D3
:1057100081421DD0002500B394F82500D0B10020AF
:1057200000F0D2F90020FFF781FFE08C00F0C6F80E
:105730008DF8005060686B46012200782321FDF748
:105740009CF9012084F8240000F0BEF9FFF712FE56
:10575000002038BD4FF0FF3038BD002000F0B4F914
:10576000207C8DF8000060686B46012200782321C0
:10577000FDF783F984F82450E8E7000010000020CA
:1057800038B5194C4FF0FF35A17A31B3FA2809D05A
:10579000B0F5FA7F08D0B0F57A7F0FD0B0F5FA6F88
:1057A0001BD10DE0002000E008208DF80000207AD9
:1057B0009DF80010B0EBD10F04D005E01020F4E705
:1057C0001820F2E7002038BD20686B46012281795D
:1057D00060680078FDF751F908B1284638BD9DF89A
:1057E0000000C0082072EDE71000002038B5174C0B
:1057F000054694F82300A84201D1002038BD0DB120
:10580000302000E000208DF80000A07C28B19DF839
:10581000000040F002008DF8000094F8220028B14A
:105820009DF8000040F080008DF8000020686B4675
:105830000122017D60680078FDF71FF910B14FF07B
:10584000FF3038BD84F82350D7E700001000002057
:1058500038B5194C4FF0FF35A17A31B3BC2801D3CC
:10586000012010E0622801D302200CE02A2801D395
:10587000032008E0142801D3042004E00A2801D3FF
:10588000052000E006208DF80000E07A9DF8001069
:10589000884201D1002038BD20686B460122817802
:1058A00060680078FDF7E9F808B1284638BD9DF832
:1058B0000000E072EEE7000010000020F8B51E4D79
:1058C00004464FF0FF37A87A48B395F8240030BB60
:1058D000287D4FF47A7648B164B1282C03D8E0B221
:1058E000FFF77AFC26E00020FFF776FC042C05D2B7
:1058F000042406E00020FFF76FFCF9E7B44200D96A
:105900003446B6FBF4F0401E8DF8000028686B4664
:105910000122417868680078FDF7AFF808B1384691
:10592000F8BD9DF80000401CB6FBF0F0E88140088F
:10593000FFF78EFF0020F8BD10000020F8B50546E7
:1059400010F0700F4FF0000601D0012004E015B1F7
:105950008DF8006002E040208DF80000244C6B467A
:1059600001222068817C60680078FDF786F84FF09E
:10597000FF3760BB9DF8000020F0400020738DF8D9
:105980000060680602D404208DF80000A80605D443
:105990009DF8000040F002008DF80000E80605D4F4
:1059A0009DF8000040F001008DF80000280705D4A4
:1059B0009DF8000040F038008DF8000020686B462C
:1059C0000122C17C60680078FDF757F810B1A6721B
:1059D0003846F8BD25B1082D02D00020FFF706FF9C
:1059E000A57226753220FBF735FE0020F8BD0000B9
:1059F00010000020F8B516000D464FF0FF371FD0FD
:105A0000104CA17AE1B1010A8DF80010C0B28DF8F6
:105A10000100411960684289914211D821680078DB
:105A20006B46097E0222FDF728F848B92068EAB2E1
:105A30003346417D60680078FDF71FF8002800D0EC
:105A40003846F8BD1000002010B588B0694604A89B
:105A5000FFF740FD032802D0012008B010BD07A8C1
:105A6000FFF78EFA049800F051FF07990C4600F0FA
:105A700079FF00F00FFF0490059800F047FF2146E2
:105A800000F070FF00F006FF0590069800F03EFF62
:105A9000214600F067FF00F0FDFE069004A8FEF727
:105AA0003DFB03A8FFF730FABDF80C000099414315
:105AB0000091019941430191029941436846029145
:105AC000FEF78EFA0020C8E7F8B5144C01462246CE
:105AD00094F82460D2E9000200235D1E56B179B12A
